:100000000C945E000C9486000C9486000C94860080
:100010000C9486000C9486000C9486000C94860048
:100020000C9486000C9486000C9486000C94860038
:100030000C9486000C9486000C9486000C94860028
:100040000C9448050C9486000C9416050C94F0044E
:100050000C9486000C9486000C9486000C94860008
:100060000C9492050C948600000000080002010028
:100070000003040700000000000000000000000072
:10008000250028002B0000000000240027002A0083
:10009000040404040404040402020202020203032E
:1000A0000303030301020408102040800102040836
:1000B0001020010204081020AD06CC0811241FBE38
:1000C000CFEFD8E0DEBFCDBF22E0A0E3B1E001C0BA
:1000D0001D92A136B207E1F711E0A0E0B1E0E2E045
:1000E000FBE102C005900D92A033B107D9F710E0F3
:1000F000CDE5D0E004C02197FE010E94730BCC3502
:10010000D107C9F70E94EB060C94740D0C94000003
:1001100090E0FC01EC55FF4F249180579F4FFC016C
:100120008491882399F090E0880F991FFC01EA5789
:10013000FF4FA591B491FC01E458FF4F8591949134
:100140008FB7F894EC91E22BEC938FBF089508954C
:10015000AF92BF92CF92DF92EF92FF920F931F93D5
:10016000CF93DF936C017B018B01040F151FEB0113
:100170005E01AE18BF08C017D10759F06991D601CA
:10018000ED91FC910190F081E02DC6010995892B3C
:1001900079F7C501DF91CF911F910F91FF90EF90FB
:1001A000DF90CF90BF90AF900895FC01538D448DA8
:1001B000252F30E0842F90E0821B930B541710F012
:1001C000CF96089501970895FC01918D828D98171F
:1001D00061F0A28DAE0FBF2FB11D5D968C91928DF7
:1001E0009F5F9F73928F90E008958FEF9FEF089528
:1001F0002FB7F8948091AA019091AB01A091AC0126
:10020000B091AD012FBF8093B6019093B701A09339
:10021000B801B093B9018EEA91E00E94E40097FF23
:1002200026C02FB7F8948091AA019091AB01A091BC
:10023000AC01B091AD012FBF4091B6015091B70113
:100240006091B8017091B901841B950BA60BB70B97
:100250004091B2015091B3016091B4017091B50128
:1002600084179507A607B707B0F28FEF9FEF0895A1
:10027000FC01918D828D981731F0828DE80FF11D70
:10028000858D90E008958FEF9FEF0895FC01918D8B
:10029000228D892F90E0805C9F4F821B91098F7384
:1002A000992708958EEA91E00E94460121E0892B6A
:1002B00009F420E0822F089580E090E0892B29F056
:1002C0000E94520181110C9400000895FC01A48D3C
:1002D000A80FB92FB11DA35ABF4F2C91848D90E068
:1002E00001968F739927848FA689B7892C93A0894B
:1002F000B1898C91837080648C93938D848D9813D5
:1003000006C00288F389E02D80818F7D8083089567
:10031000EF92FF920F931F93CF93DF93EC0181E055
:10032000888F9B8D8C8D98131AC0E889F9898081FC
:1003300085FF15C09FB7F894EE89FF896083E8892F
:10034000F98980818370806480839FBF81E090E021
:10035000DF91CF911F910F91FF90EF900895F62EAE
:100360000B8D10E00F5F1F4F0F731127E02E8C8D48
:100370008E110CC00FB607FCFACFE889F98980818D
:1003800085FFF5CFCE010E946601F1CFEB8DEC0F1A
:10039000FD2FF11DE35AFF4FF0829FB7F8940B8FAA
:1003A000EA89FB8980818062CFCFCF93DF93EC0114
:1003B000888D8823B9F0AA89BB89E889F9898C914D
:1003C00085FD03C0808186FD0DC00FB607FCF7CF09
:1003D0008C9185FFF2CF808185FFEDCFCE010E9409
:1003E0006601E9CFDF91CF91089590E0FC01E859D3
:1003F000FF4F2491FC01EC55FF4F3491FC01E05775
:10040000FF4FE491EE23C9F0222339F0233001F1AC
:10041000A8F4213019F1223029F1F0E0EE0FFF1F8E
:10042000E458FF4FA591B4918FB7F894EC91611106
:1004300026C030953E233C938FBF08952730A9F006
:100440002830C9F0243049F7809180008F7D03C0A7
:10045000809180008F7780938000DFCF84B58F7785
:1004600084BDDBCF84B58F7DFBCF8091B0008F77CB
:100470008093B000D2CF8091B0008F7DF9CF3E2B1A
:10048000DACF2091000190E4299F900111248E5031
:10049000822B80937C0080917A00806480937A0024
:1004A00080917A0086FDFCCF809178009091790050
:1004B00008953FB7F89480919C0190919D01A0917F
:1004C0009E01B0919F0126B5A89B05C02F3F19F052
:1004D0000196A11DB11D3FBFBA2FA92F982F8827C4
:1004E000BC01CD01620F711D811D911D42E0660F9F
:1004F000771F881F991F4A95D1F708958F929F9271
:10050000AF92BF92CF92DF92EF92FF920E94590278
:100510004B015C0182E3C82ED12CE12CF12C0E940E
:100520005902681979098A099B09683E7340810557
:100530009105A8F321E0C21AD108E108F10888EE7C
:10054000880E83E0981EA11CB11CC114D104E104E3
:10055000F10429F7FF90EF90DF90CF90BF90AF901C
:100560009F908F90089585ED8093BC008091BC0092
:1005700084FDFCCF10927501089520915101260F42
:100580003327331F21323105ECF420917501FC0132
:1005900090E080E0243069F082E00895A09151015C
:1005A0002191AC014F5C5E4FA40FB52FB11D2C9370
:1005B0000196861798F380915101680F609351015D
:1005C00080E0089581E0089508958FEF9FEF0895EA
:1005D0008FEF9FEF08958091300190E09195819584
:1005E00091090895CF93DF93CB01EA01642F0E9414
:1005F000BD02CE01DF91CF910895CF93DF931F927B
:10060000CDB7DEB7698361E0CE0101960E94BD02DD
:1006100081E090E00F90DF91CF91089590E080E02D
:1006200008950F931F93CF93DF938C0160E087E0D1
:100630000E94F501D0E0C0E061E087E00E94F50192
:100640000E947E0260E087E00E94F5010E947E0227
:1006500061E087E00E94F50121960C171D0761F704
:10066000DF91CF911F910F910895FC01019000201F
:10067000E9F73197AF01481B590BBC018EEA91E0B5
:100680000C94A8008F929F92AF92BF920F931F93EA
:10069000CF93DF93CDB7DEB7A1970FB6F894DEBF47
:1006A0000FBECDBF19A2423008F44AE08E010F5DA3
:1006B0001F4F842E912CB12CA12CA50194010E94D6
:1006C000510BE62FB901CA01EA30F4F4E05DD8011C
:1006D000EE938D01232B242B252B79F790E080E0DE
:1006E000109719F0CD010E943503A1960FB6F8942A
:1006F000DEBF0FBECDBFDF91CF911F910F91BF9095
:10070000AF909F908F900895E95CE1CF4F925F92F8
:100710006F927F928F929F92AF92BF92CF92DF9211
:10072000EF92FF920F931F93CF936B017C01742E76
:10073000AC019B010E944C0B882399F089E191E068
:10074000CF911F910F91FF90EF90DF90CF90BF90CE
:10075000AF909F908F907F906F905F904F900C9490
:10076000350346015701E894B7F82FEF3FEF4FE705
:100770005FE7C501B4010E944C0B81110DC02FEF42
:100780003FEF4FE75FE7C501B4010E94DE0818168E
:100790001CF48DE191E0D4CF2FEF3FEF4FE75FE402
:1007A000C701B6010E94470B18161CF481E291E0C4
:1007B000C7CF2FEF3FEF4FE75FECC701B6010E94B5
:1007C000DE0887FDF3CF20E030E0A901C701B601C4
:1007D0000E94DE0810E000E087FF0AC06DE28EEAAA
:1007E00091E00E9488018C01F7FAF094F7F8F094F8
:1007F000C0E060E070E080E09FE37C1641F020E024
:1008000030E040E251E40E94A60ACF5FF6CFA70194
:1008100096010E943A0A2B013C010E94180B4B01E1
:100820005C014AE00E9442037C01E00EF11ECC23F1
:10083000C1F1C501B4010E94E3089B01AC01C301F1
:10084000B2010E94390A4B015C016EE28EEA91E02E
:100850000E948801E80EF91EC15018F120E030E036
:1008600040E251E4C501B4010E9444092B013C015E
:100870000E94180B4B01B12CA12C4AE0C501B40118
:100880000E944203E80EF91EC501B4010E94E3086C
:100890009B01AC01C301B2010E94390A4B015C010A
:1008A000DBCFC701CF911F910F91FF90EF90DF90A9
:1008B000CF90BF90AF909F908F907F906F905F9000
:1008C0004F900895E0915702F0915802DC016D912C
:1008D0007C913097D9F061157105A9F480915B0284
:1008E00090915C02892BA9F0808190E00895FC0131
:1008F00084819581892B69F0DB018C9190E0919541
:10090000819591090895CF010C94640D61157105CD
:1009100071F790E080E008950F931F93CF93DF93DA
:10092000EC0188819981009759F02A813B81261733
:10093000370730F081E0DF91CF911F910F9108953B
:100940008B016F5F7F4F0E949E0C009759F0998337
:1009500088831B830A832C813D81232B59F7FC015B
:100960001082E8CF80E0E7CFEF92FF920F931F93C2
:10097000CF93DF93EC017B01198218821B821A82CC
:100980001D821C82FB0101900020E9F731978F0145
:10099000061B170BB8010E948C0428813981811134
:1009A00013C02115310519F0C9010E94150C1982D7
:1009B00018821D821C821B821A82DF91CF911F91A7
:1009C0000F91FF90EF9008951D830C83B701C9012B
:1009D000DF91CF911F910F91FF90EF900C946D0DCF
:1009E0001F920F920FB60F9211242F933F934F93A4
:1009F0005F936F937F938F939F93AF93BF93EF9387
:100A0000FF938EEA91E00E946601FF91EF91BF9102
:100A1000AF919F918F917F916F915F914F913F9196
:100A20002F910F900FBE0F901F9018951F920F924D
:100A30000FB60F9211242F938F939F93EF93FF93F1
:100A4000E091BE01F091BF018081E091C401F0917D
:100A5000C50182FD1BC090818091C7018F5F8F739C
:100A60002091C801821741F0E091C701F0E0E25502
:100A7000FE4F958F8093C701FF91EF919F918F91CA
:100A80002F910F900FBE0F901F9018958081F4CF7B
:100A90001F920F920FB60F9211242F933F938F93B3
:100AA0009F93AF93BF938091AA019091AB01A091C6
:100AB000AC01B091AD0130919B0123E0230F2D37A4
:100AC00058F50196A11DB11D20939B018093AA01A9
:100AD0009093AB01A093AC01B093AD0180919C01C8
:100AE00090919D01A0919E01B0919F010196A11D41
:100AF000B11D80939C0190939D01A0939E01B093A2
:100B00009F01BF91AF919F918F913F912F910F9036
:100B10000FBE0F901F90189526E8230F0296A11D77
:100B2000B11DD2CF1F920F920FB60F9211242F93A7
:100B30003F934F935F936F937F938F939F93AF9365
:100B4000BF93EF93FF938091B900887F803609F4BB
:100B50004AC0F0F5883209F4A5C018F5803109F4CF
:100B600099C0B8F4882309F4F5C0883009F492C01C
:100B7000FF91EF91BF91AF919F918F917F916F9175
:100B80005F914F913F912F910F900FBE0F901F904B
:100B90001895883109F486C0803251F7809374012A
:100BA00014C0803409F49BC040F48033B9F3883317
:100BB000F9F68093740185ECAEC0803509F483C0EA
:100BC000883509F494C0883499F60E94B302D0CFD6
:100BD000883909F48AC038F5883729F050F4883606
:100BE00011F0803729F683E080937501109273012C
:100BF00055C0883809F479C0803919F0803809F077
:100C0000B7CF80917301803208F06FC0E09173011B
:100C100081E08E0F809373018091BB00F0E0ED5A6C
:100C2000FE4F80833BC0803B39F0D0F4803A09F41A
:100C300077C0883A09F09CCF84E0809375011092C8
:100C4000520110925101F0E0E0E0099580915101CC
:100C500081110FC081E0809351011092310109C0D0
:100C6000803C09F4A8CF883C09F4A5CF883B09F063
:100C70007FCFE091520181E08E0F80935201F0E02E
:100C8000EF5CFE4F80818093BB0090915201809178
:100C9000510129C080919A018093BB0085EC80931B
:100CA000BC0066CF9091990180919801981758F5F2
:100CB000E091990181E08E0F80939901F0E0E8586E
:100CC000FE4F8081E9CFE091990181E08E0F809302
:100CD00099018091BB00F0E0E858FE4F808390912D
:100CE0009901809198019817C8F285E8D8CFE091D2
:100CF000990181E08E0F809399018091BB00F0E013
:100D0000E858FE4F80838091770181115ECF81E0AA
:100D10008093760184EA8093BC001092750128CFFD
:100D200085EC8093BC001092750180917301803234
:100D300030F4E0917301F0E0ED5AFE4F10826091C3
:100D4000730170E083E591E0F0E0E0E00995109236
:100D500073010ECF1092740138CFEEEAF1E01382E6
:100D6000128288EE93E0A0E0B0E084839583A683AE
:100D7000B7838BE091E09183808385EC90E0958749
:100D8000848784EC90E09787868780EC90E0918B55
:100D9000808B81EC90E0938B828B82EC90E0958B42
:100DA000848B86EC90E0978B868B118E128E138E3F
:100DB000148E6FE271E087E592E00E94B40465E270
:100DC00071E081E592E00E94B4046AE271E08BE494
:100DD00092E00C94B404CF93DF93CDB7DEB728979D
:100DE0000FB6F894DEBF0FBECDBF789484B5826095
:100DF00084BD84B5816084BD85B5826085BD85B5BF
:100E0000816085BD80916E00816080936E0010923C
:100E100081008091810082608093810080918100B7
:100E20008160809381008091800081608093800048
:100E30008091B10084608093B1008091B0008160A6
:100E40008093B00080917A00846080937A008091D2
:100E50007A00826080937A0080917A00816080932A
:100E60007A0080917A00806880937A001092C100A5
:100E700083E080930001E091BE01F091BF0182E028
:100E80008083E091BA01F091BB011082E091BC0136
:100E9000F091BD018FEC80831092C601E091C201F8
:100EA000F091C30186E08083E091C001F091C1011F
:100EB000808180618083E091C001F091C1018081D7
:100EC00088608083E091C001F091C10180818068D9
:100ED0008083E091C001F091C10180818F7D80838A
:100EE00087E00E9488008AE00E94880060E08AE033
:100EF0000E94F50161E087E00E94F5018BE5C82EB4
:100F000084E0D82E90E0E92E90E0F92E1A82198222
:100F10001C821B821E821D8270E060E0CE01019661
:100F20000E948C0429813A8181112BC02115310541
:100F300019F0C9010E94150C1A8219821E821D82A5
:100F40001C821B820E94F80097FD23C08F831886A5
:100F50000D811E810F5F1F4FB801CE0101960E94C7
:100F60008C04882379F329813A818D819E81BE0189
:100F7000695F7F4F820F931F0E946D0D1E830D834B
:100F8000E1CF1E821D826FE271E0C9010E946D0DEA
:100F9000D9CF8091570290915802009709F44EC022
:100FA00069817A816115710509F446C04091590241
:100FB00050915A022D813E8142175307E8F10E9459
:100FC0006D0D8D819E8190935C0280935B0289817F
:100FD0009A810E94150C00915B0210915C02809135
:100FE00055029091560208171907E9F581E592E03C
:100FF0000E946204892BB9F585E090E00E941103FC
:101000008EE00E944102BC01990F880B990B0E944F
:10101000E50842E00E9486038DE291E00E943503DC
:10102000E114F10409F472CF0E945201882309F4FB
:101030006DCF0E9400006ACF0E94150C89819A81B1
:1010400090935802809357028B819C8190935A020F
:10105000809359028D819E8190935C0280935B0204
:101060001A821982B4CF80914F02909150020817D2
:101070001907B1F68BE492E00E946204892B81F695
:1010800086E090E00E9411031092A6011092A70141
:101090001092A8011092A9011092A5011092A4012A
:1010A0000091A4011091A5010A3011050CF065C052
:1010B00061E08AE00E94F501C6010197F1F783E142
:1010C0000E944102BC01990F880B990B0E94E50810
:1010D0004B015C018092A0019092A101A092A2011B
:1010E000B092A30160E08AE00E94F50120E030E4C4
:1010F0004CE950E4C501B4010E9444094B015C0174
:1011000020E030E046E154E40E94470B181644F614
:1011100020E030E046E154E4C501B4010E94390A00
:101120002DEC3CEC4CE45EE30E9444094B015C0175
:1011300020E030E0A9010E94470B18160CF0B0CF58
:10114000A50194016091A6017091A7018091A80169
:101150009091A9010E943A0A6093A6017093A70199
:101160008093A8019093A9010F5F1F4F1093A501D1
:101170000093A4010E947E0293CF20E030E040E281
:1011800051E46091A6017091A7018091A80190910E
:10119000A9010E94A60A3DCF80914B0290914C027A
:1011A0000E94150C80915102909152020E94150CE0
:1011B00080915702909158020C94150C0E942009BE
:1011C00008F481E00895E89409C097FB3EF49095F7
:1011D0008095709561957F4F8F4F9F4F9923A9F010
:1011E000F92F96E9BB279395F6958795779567959F
:1011F000B795F111F8CFFAF4BB0F11F460FF1BC0E3
:101200006F5F7F4F8F4F9F4F16C0882311F096E975
:1012100011C0772321F09EE8872F762F05C0662323
:1012200071F096E8862F70E060E02AF09A95660FDC
:10123000771F881FDAF7880F9695879597F9089595
:10124000990F0008550FAA0BE0E8FEEF16161706D7
:10125000E807F907C0F012161306E407F50798F03F
:10126000621B730B840B950B39F40A2661F0232B58
:10127000242B252B21F408950A2609F4A140A695D4
:101280008FEF811D811D08950E9457090C94C80994
:101290000E94BA0938F00E94C10920F0952311F08C
:1012A0000C94B1090C94B70911240C94FC090E9408
:1012B000D90970F3959FC1F3950F50E0551F629FB8
:1012C000F001729FBB27F00DB11D639FAA27F00D9F
:1012D000B11DAA1F649F6627B00DA11D661F829FC6
:1012E0002227B00DA11D621F739FB00DA11D621FAB
:1012F000839FA00D611D221F749F3327A00D611DC8
:10130000231F849F600D211D822F762F6A2F1124A9
:101310009F5750409AF0F1F088234AF0EE0FFF1FDC
:10132000BB1F661F771F881F91505040A9F79E3F33
:10133000510580F00C94B1090C94FC095F3FE4F373
:10134000983ED4F3869577956795B795F795E79589
:101350009F5FC1F7FE2B880F911D9695879597F992
:10136000089597F99F6780E870E060E008959FEF27
:1013700080EC089500240A9416161706180609062C
:10138000089500240A9412161306140605060895FB
:10139000092E0394000C11F4882352F0BB0F40F483
:1013A000BF2B11F460FF04C06F5F7F4F8F4F9F4FC3
:1013B000089557FD9058440F551F59F05F3F71F045
:1013C0004795880F97FB991F61F09F3F79F08795AC
:1013D0000895121613061406551FF2CF4695F1DF35
:1013E00008C0161617061806991FF1CF86957105C5
:1013F000610508940895E894BB2766277727CB01F9
:1014000097F908952F923F924F925F926F927F9239
:101410008F929F92AF92BF92CF92DF92EF92FF9204
:101420000F931F93CF93DF93CDB7DEB7CA1BDB0BB0
:101430000FB6F894DEBF0FBECDBF09942A88398855
:1014400048885F846E847D848C849B84AA84B9845C
:10145000C884DF80EE80FD800C811B81AA81B98168
:10146000CE0FD11D0FB6F894DEBF0FBECDBFED017C
:1014700008955058BB27AA270E94510A0C94C80906
:101480000E94BA0938F00E94C10920F039F49F3F48
:1014900019F426F40C94B7090EF4E095E7FB0C94CC
:1014A000B109E92F0E94D90958F3BA1762077307E7
:1014B0008407950720F079F4A6F50C94FB090EF447
:1014C000E0950B2EBA2FA02D0B01B90190010C0154
:1014D000CA01A0011124FF27591B99F0593F50F46C
:1014E000503E68F11A16F040A22F232F342F4427C4
:1014F000585FF3CF469537952795A795F0405395BC
:10150000C9F77EF41F16BA0B620B730B840BBAF08B
:101510009150A1F0FF0FBB1F661F771F881FC2F7F6
:101520000EC0BA0F621F731F841F48F4879577950A
:101530006795B795F7959E3F08F0B0CF9395880FC4
:1015400008F09927EE0F9795879508950E94BA0A9B
:101550000C94C8090E94C10958F00E94BA0940F0D1
:1015600029F45F3F29F00C94B10951110C94FC0946
:101570000C94B7090E94D90968F39923B1F3552354
:1015800091F3951B550BBB27AA2762177307840796
:1015900038F09F5F5F4F220F331F441FAA1FA9F32C
:1015A00035D00E2E3AF0E0E832D091505040E6951A
:1015B000001CCAF72BD0FE2F29D0660F771F881F7B
:1015C000BB1F261737074807AB07B0E809F0BB0B6E
:1015D000802DBF01FF2793585F4F3AF09E3F510582
:1015E00078F00C94B1090C94FC095F3FE4F3983E49
:1015F000D4F3869577956795B795F7959F5FC9F76B
:10160000880F911D9695879597F90895E1E0660FEB
:10161000771F881FBB1F621773078407BA0720F064
:10162000621B730B840BBA0BEE1F88F7E0950895CD
:101630000E94E10988F09F5798F0B92F9927B75178
:10164000B0F0E1F0660F771F881F991F1AF0BA9566
:10165000C9F714C0B13091F00E94FB09B1E00895C0
:101660000C94FB09672F782F8827B85F39F0B93FB2
:10167000CCF3869577956795B395D9F73EF4909519
:101680008095709561957F4F8F4F9F4F08950E9471
:10169000200908F48FEF08950E942009880B990B08
:1016A0000895A1E21A2EAA1BBB1BFD010DC0AA1FA3
:1016B000BB1FEE1FFF1FA217B307E407F50720F0BB
:1016C000A21BB30BE40BF50B661F771F881F991F36
:1016D0001A9469F760957095809590959B01AC017F
:1016E000BD01CF010895EE0FFF1F0590F491E02D8D
:1016F00009940F931F93CF93DF938230910510F4D9
:1017000082E090E0E0915F02F091600230E020E042
:10171000B0E0A0E0309799F42115310509F44AC0F2
:10172000281B390B24303105D8F58A819B8161153E
:10173000710589F1FB0193838283FE0111C0408111
:1017400051810281138148175907E0F04817590762
:1017500099F4109761F012960C93129713961C93BC
:101760003296CF01DF91CF911F910F910895009391
:101770005F0210936002F4CF2115310551F042173A
:10178000530738F0A901DB019A01BD01DF01F8011F
:10179000C1CFEF01F9CF9093600280935F02CDCF6C
:1017A000FE01E20FF31F8193919322503109398397
:1017B0002883D7CF20915D0230915E02232B41F424
:1017C000209103013091040130935E0220935D0269
:1017D00020910101309102012115310541F42DB70D
:1017E0003EB74091050150910601241B350BE09155
:1017F0005D02F0915E02E217F307A0F42E1B3F0B8F
:101800002817390778F0AC014E5F5F4F2417350772
:1018100048F04E0F5F1F50935E0240935D0281932C
:1018200091939FCFF0E0E0E09CCFCF93DF930097C0
:10183000E9F0FC01329713821282A0915F02B0910D
:101840006002ED0130E020E01097A1F420813181A9
:10185000820F931F20915D0230915E022817390795
:1018600009F061C0F0935E02E0935D02DF91CF91D9
:101870000895EA01CE17DF07E8F54A815B819E01F2
:1018800041155105B1F7E901FB83EA83499159916B
:10189000C40FD51FEC17FD0761F48081918102967A
:1018A000840F951FE90199838883828193819B83AB
:1018B0008A83F0E0E0E012968D919C911397009757
:1018C000B9F52D913C911197CD010296820F931F8E
:1018D00020915D0230915E022817390739F6309762
:1018E00051F51092600210925F02B0935E02A093D5
:1018F0005D02BCCFD383C28340815181840F951F89
:10190000C817D90761F44E5F5F4F88819981480FEE
:10191000591F518340838A819B8193838283211540
:10192000310509F0B0CFF0936002E0935F029ECFE3
:10193000FD01DC01C0CF13821282D7CFB0E0A0E05E
:10194000E4EAFCE00C94040A8C01009751F4CB010A
:101950000E94790B8C01C801CDB7DEB7E0E10C9491
:10196000200AFC01E60FF71F9C0122503109E21703
:10197000F30708F49DC0D901CD91DC911197C617EA
:10198000D70798F0C530D10530F3CE0104978617FC
:10199000970708F3C61BD70B2297C193D1936D937A
:1019A0007C93CF010E94150CD6CF5B01AC1ABD0A07
:1019B0004C018C0E9D1EA0915F02B0916002512CD3
:1019C000412CF12CE12C109731F580915D02909122
:1019D0005E028815990509F05CC04616570608F0A6
:1019E00058C08091010190910201009741F48DB798
:1019F0009EB74091050150910601841B950BE81795
:101A0000F90708F055C0F0935E02E0935D02F9011A
:101A100071836083A0CF8D919C91119712966C90E9
:101A2000129713967C901397A815B90559F56C0178
:101A300042E0C40ED11CCA14DB0420F1AC014A19E7
:101A40005B09DA011296159780F0628273825183E6
:101A50004083D9016D937C93E114F10471F0D701B7
:101A60001396FC93EE93129776CF22968C0F9D1FC0
:101A7000F90191838083F301EFCFF0936002E0934B
:101A80005F0269CF4816590608F42C017D01D30185
:101A90009ACFCB010E94790B7C01009749F0AE01EF
:101AA000B8010E945B0DC8010E94150C870153CF3D
:101AB00010E000E050CFFB01DC0102C001900D926C
:101AC00041505040D8F70895FB01DC018D91019001
:101AD00080190110D9F3990B0895FB01DC010190E5
:101AE0000D920020E1F7089510E0CDE5D0E004C0AC
:101AF000FE010E94730B2196CE35D107C9F7F894E9
:021B0000FFCF15
:101B020001000061028000000000008801A800D5E9
:101B120000D5014601E40038016E616E00696E660F
:101B2200006F7666007261696E00706D000D0A00CA
:00000001FF
